{"abi":[{"type":"constructor","inputs":[{"name":"_owners","type":"address[]","internalType":"address[]"},{"name":"_threshold","type":"uint256","internalType":"uint256"}],"stateMutability":"payable"},{"type":"receive","stateMutability":"payable"},{"type":"function","name":"TIMELOCK_DURATION","inputs":[],"outputs":[{"name":"","type":"uint256","internalType":"uint256"}],"stateMutability":"view"},{"type":"function","name":"balances","inputs":[{"name":"","type":"address","internalType":"address"}],"outputs":[{"name":"","type":"uint256","internalType":"uint256"}],"stateMutability":"view"},{"type":"function","name":"claim","inputs":[{"name":"proof","type":"bytes32[]","internalType":"bytes32[]"},{"name":"amount","type":"uint256","internalType":"uint256"}],"outputs":[],"stateMutability":"nonpayable"},{"type":"function","name":"claimed","inputs":[{"name":"","type":"address","internalType":"address"}],"outputs":[{"name":"","type":"bool","internalType":"bool"}],"stateMutability":"view"},{"type":"function","name":"confirmTransaction","inputs":[{"name":"txId","type":"uint256","internalType":"uint256"}],"outputs":[],"stateMutability":"nonpayable"},{"type":"function","name":"confirmed","inputs":[{"name":"","type":"uint256","internalType":"uint256"},{"name":"","type":"address","internalType":"address"}],"outputs":[{"name":"","type":"bool","internalType":"bool"}],"stateMutability":"view"},{"type":"function","name":"deposit","inputs":[],"outputs":[],"stateMutability":"payable"},{"type":"function","name":"emergencyWithdrawAll","inputs":[{"name":"to","type":"address","internalType":"address payable"}],"outputs":[],"stateMutability":"nonpayable"},{"type":"function","name":"executeTransaction","inputs":[{"name":"txId","type":"uint256","internalType":"uint256"}],"outputs":[],"stateMutability":"nonpayable"},{"type":"function","name":"isOwner","inputs":[{"name":"","type":"address","internalType":"address"}],"outputs":[{"name":"","type":"bool","internalType":"bool"}],"stateMutability":"view"},{"type":"function","name":"merkleRoot","inputs":[],"outputs":[{"name":"","type":"bytes32","internalType":"bytes32"}],"stateMutability":"view"},{"type":"function","name":"owners","inputs":[{"name":"","type":"uint256","internalType":"uint256"}],"outputs":[{"name":"","type":"address","internalType":"address"}],"stateMutability":"view"},{"type":"function","name":"pause","inputs":[],"outputs":[],"stateMutability":"nonpayable"},{"type":"function","name":"paused","inputs":[],"outputs":[{"name":"","type":"bool","internalType":"bool"}],"stateMutability":"view"},{"type":"function","name":"setMerkleRoot","inputs":[{"name":"root","type":"bytes32","internalType":"bytes32"}],"outputs":[],"stateMutability":"nonpayable"},{"type":"function","name":"submitTransaction","inputs":[{"name":"to","type":"address","internalType":"address"},{"name":"value","type":"uint256","internalType":"uint256"},{"name":"data","type":"bytes","internalType":"bytes"}],"outputs":[],"stateMutability":"nonpayable"},{"type":"function","name":"threshold","inputs":[],"outputs":[{"name":"","type":"uint256","internalType":"uint256"}],"stateMutability":"view"},{"type":"function","name":"totalVaultValue","inputs":[],"outputs":[{"name":"","type":"uint256","internalType":"uint256"}],"stateMutability":"view"},{"type":"function","name":"transactions","inputs":[{"name":"","type":"uint256","internalType":"uint256"}],"outputs":[{"name":"to","type":"address","internalType":"address"},{"name":"value","type":"uint256","internalType":"uint256"},{"name":"data","type":"bytes","internalType":"bytes"},{"name":"executed","type":"bool","internalType":"bool"},{"name":"confirmations","type":"uint256","internalType":"uint256"},{"name":"submissionTime","type":"uint256","internalType":"uint256"},{"name":"executionTime","type":"uint256","internalType":"uint256"}],"stateMutability":"view"},{"type":"function","name":"txCount","inputs":[],"outputs":[{"name":"","type":"uint256","internalType":"uint256"}],"stateMutability":"view"},{"type":"function","name":"unpause","inputs":[],"outputs":[],"stateMutability":"nonpayable"},{"type":"function","name":"usedHashes","inputs":[{"name":"","type":"bytes32","internalType":"bytes32"}],"outputs":[{"name":"","type":"bool","internalType":"bool"}],"stateMutability":"view"},{"type":"function","name":"verifySignature","inputs":[{"name":"signer","type":"address","internalType":"address"},{"name":"messageHash","type":"bytes32","internalType":"bytes32"},{"name":"signature","type":"bytes","internalType":"bytes"}],"outputs":[{"name":"","type":"bool","internalType":"bool"}],"stateMutability":"pure"},{"type":"function","name":"withdraw","inputs":[{"name":"amount","type":"uint256","internalType":"uint256"}],"outputs":[],"stateMutability":"nonpayable"},{"type":"event","name":"Claim","inputs":[{"name":"claimant","type":"address","indexed":true,"internalType":"address"},{"name":"amount","type":"uint256","indexed":false,"internalType":"uint256"}],"anonymous":false},{"type":"event","name":"Confirmation","inputs":[{"name":"txId","type":"uint256","indexed":true,"internalType":"uint256"},{"name":"owner","type":"address","indexed":true,"internalType":"address"}],"anonymous":false},{"type":"event","name":"Deposit","inputs":[{"name":"depositor","type":"address","indexed":true,"internalType":"address"},{"name":"amount","type":"uint256","indexed":false,"internalType":"uint256"}],"anonymous":false},{"type":"event","name":"Execution","inputs":[{"name":"txId","type":"uint256","indexed":true,"internalType":"uint256"}],"anonymous":false},{"type":"event","name":"MerkleRootSet","inputs":[{"name":"newRoot","type":"bytes32","indexed":true,"internalType":"bytes32"}],"anonymous":false},{"type":"event","name":"Submission","inputs":[{"name":"txId","type":"uint256","indexed":true,"internalType":"uint256"}],"anonymous":false},{"type":"event","name":"Withdrawal","inputs":[{"name":"withdrawer","type":"address","indexed":true,"internalType":"address"},{"name":"amount","type":"uint256","indexed":false,"internalType":"uint256"}],"anonymous":false},{"type":"error","name":"ECDSAInvalidSignature","inputs":[]},{"type":"error","name":"ECDSAInvalidSignatureLength","inputs":[{"name":"length","type":"uint256","internalType":"uint256"}]},{"type":"error","name":"ECDSAInvalidSignatureS","inputs":[{"name":"s","type":"bytes32","internalType":"bytes32"}]}],"bytecode":{"object":"0x608060405260405161367038038061367083398181016040528101906100259190610573565b81815f82511161006a576040517f08c379a000000000000000000000000000000000000000000000000000000000815260040161006190610627565b60405180910390fd5b5f8111801561007a575081518111155b6100b9576040517f08c379a00000000000000000000000000000000000000000000000000000000081526004016100b09061068f565b60405180910390fd5b5f5f90505b825181101561029e575f8382815181106100db576100da6106ad565b5b602002602001015190505f73ffffffffffffffffffffffffffffffffffffffff168173ffffffffffffffffffffffffffffffffffffffff1603610153576040517f08c379a000000000000000000000000000000000000000000000000000000000815260040161014a90610724565b60405180910390fd5b60015f8273ffffffffffffffffffffffffffffffffffffffff1673ffffffffffffffffffffffffffffffffffffffff1681526020019081526020015f205f9054906101000a900460ff16156101dd576040517f08c379a00000000000000000000000000000000000000000000000000000000081526004016101d49061078c565b60405180910390fd5b6001805f8373ffffffffffffffffffffffffffffffffffffffff1673ffffffffffffffffffffffffffffffffffffffff1681526020019081526020015f205f6101000a81548160ff0219169083151502179055505f81908060018154018082558091505060019003905f5260205f20015f9091909190916101000a81548173ffffffffffffffffffffffffffffffffffffffff021916908373ffffffffffffffffffffffffffffffffffffffff1602179055505080806001019150506100be565b508060028190555050505f3411156102c1576102c033346102c860201b60201c565b5b5050610832565b8060045f8473ffffffffffffffffffffffffffffffffffffffff1673ffffffffffffffffffffffffffffffffffffffff1681526020019081526020015f205f82825461031491906107d7565b925050819055508060085f82825461032c91906107d7565b925050819055508173ffffffffffffffffffffffffffffffffffffffff167fe1fffcc4923d04b559f4d29a8bfc6cda04eb5b0d3c460751c2402c5c5cc9109c826040516103799190610819565b60405180910390a25050565b5f604051905090565b5f5ffd5b5f5ffd5b5f5ffd5b5f601f19601f8301169050919050565b7f4e487b71000000000000000000000000000000000000000000000000000000005f52604160045260245ffd5b6103e08261039a565b810181811067ffffffffffffffff821117156103ff576103fe6103aa565b5b80604052505050565b5f610411610385565b905061041d82826103d7565b919050565b5f67ffffffffffffffff82111561043c5761043b6103aa565b5b602082029050602081019050919050565b5f5ffd5b5f73ffffffffffffffffffffffffffffffffffffffff82169050919050565b5f61047a82610451565b9050919050565b61048a81610470565b8114610494575f5ffd5b50565b5f815190506104a581610481565b92915050565b5f6104bd6104b884610422565b610408565b905080838252602082019050602084028301858111156104e0576104df61044d565b5b835b8181101561050957806104f58882610497565b8452602084019350506020810190506104e2565b5050509392505050565b5f82601f83011261052757610526610396565b5b81516105378482602086016104ab565b91505092915050565b5f819050919050565b61055281610540565b811461055c575f5ffd5b50565b5f8151905061056d81610549565b92915050565b5f5f604083850312156105895761058861038e565b5b5f83015167ffffffffffffffff8111156105a6576105a5610392565b5b6105b285828601610513565b92505060206105c38582860161055f565b9150509250929050565b5f82825260208201905092915050565b7f4e6f206f776e6572732070726f766964656400000000000000000000000000005f82015250565b5f6106116012836105cd565b915061061c826105dd565b602082019050919050565b5f6020820190508181035f83015261063e81610605565b9050919050565b7f496e76616c6964207468726573686f6c640000000000000000000000000000005f82015250565b5f6106796011836105cd565b915061068482610645565b602082019050919050565b5f6020820190508181035f8301526106a68161066d565b9050919050565b7f4e487b71000000000000000000000000000000000000000000000000000000005f52603260045260245ffd5b7f496e76616c6964206f776e6572206164647265737300000000000000000000005f82015250565b5f61070e6015836105cd565b9150610719826106da565b602082019050919050565b5f6020820190508181035f83015261073b81610702565b9050919050565b7f4475706c6963617465206f776e657200000000000000000000000000000000005f82015250565b5f610776600f836105cd565b915061078182610742565b602082019050919050565b5f6020820190508181035f8301526107a38161076a565b9050919050565b7f4e487b71000000000000000000000000000000000000000000000000000000005f52601160045260245ffd5b5f6107e182610540565b91506107ec83610540565b9250828201905080821115610804576108036107aa565b5b92915050565b61081381610540565b82525050565b5f60208201905061082c5f83018461080a565b92915050565b612e318061083f5f395ff3fe60806040526004361061014e575f3560e01c80635c975abb116100b5578063afbc74b91161006e578063afbc74b9146104ab578063c01a8c84146104d5578063c6427474146104fd578063c884ef8314610525578063d0e30db014610561578063ee22610b1461056b5761015f565b80635c975abb146103895780637cb64759146103b35780638456cb59146103db5780638790c1de146103f15780639ace38c21461042d578063aef18bf71461046f5761015f565b80633b439351116101075780633b439351146102a55780633c540687146102cd5780633f4ba83a146102f757806342cde4e81461030d5780634623c81e1461033757806354ab6269146103615761015f565b80630175199814610163578063025e7c271461019f57806327e235e3146101db5780632e1a7d4d146102175780632eb4a7ab1461023f5780632f54bf6e146102695761015f565b3661015f5761015d3334610593565b005b5f5ffd5b34801561016e575f5ffd5b5061018960048036038101906101849190611de4565b610650565b6040516101969190611e6a565b60405180910390f35b3480156101aa575f5ffd5b506101c560048036038101906101c09190611eb6565b610692565b6040516101d29190611ef0565b60405180910390f35b3480156101e6575f5ffd5b5061020160048036038101906101fc9190611f09565b6106cc565b60405161020e9190611f43565b60405180910390f35b348015610222575f5ffd5b5061023d60048036038101906102389190611eb6565b6106e1565b005b34801561024a575f5ffd5b50610253610915565b6040516102609190611f6b565b60405180910390f35b348015610274575f5ffd5b5061028f600480360381019061028a9190611f09565b61091b565b60405161029c9190611e6a565b60405180910390f35b3480156102b0575f5ffd5b506102cb60048036038101906102c69190611fe1565b610938565b005b3480156102d8575f5ffd5b506102e1610c34565b6040516102ee9190611f43565b60405180910390f35b348015610302575f5ffd5b5061030b610c3a565b005b348015610318575f5ffd5b50610321610cc3565b60405161032e9190611f43565b60405180910390f35b348015610342575f5ffd5b5061034b610cc9565b6040516103589190611f43565b60405180910390f35b34801561036c575f5ffd5b5061038760048036038101906103829190612079565b610ccf565b005b348015610394575f5ffd5b5061039d610df5565b6040516103aa9190611e6a565b60405180910390f35b3480156103be575f5ffd5b506103d960048036038101906103d491906120a4565b610e07565b005b3480156103e6575f5ffd5b506103ef610eac565b005b3480156103fc575f5ffd5b50610417600480360381019061041291906120cf565b610f36565b6040516104249190611e6a565b60405180910390f35b348015610438575f5ffd5b50610453600480360381019061044e9190611eb6565b610f60565b604051610466979695949392919061216d565b60405180910390f35b34801561047a575f5ffd5b50610495600480360381019061049091906120a4565b61104f565b6040516104a29190611e6a565b60405180910390f35b3480156104b6575f5ffd5b506104bf61106c565b6040516104cc9190611f43565b60405180910390f35b3480156104e0575f5ffd5b506104fb60048036038101906104f69190611eb6565b611072565b005b348015610508575f5ffd5b50610523600480360381019061051e9190612236565b611341565b005b348015610530575f5ffd5b5061054b60048036038101906105469190611f09565b61162e565b6040516105589190611e6a565b60405180910390f35b61056961164b565b005b348015610576575f5ffd5b50610591600480360381019061058c9190611eb6565b611657565b005b8060045f8473ffffffffffffffffffffffffffffffffffffffff1673ffffffffffffffffffffffffffffffffffffffff1681526020019081526020015f205f8282546105df91906122d4565b925050819055508060085f8282546105f791906122d4565b925050819055508173ffffffffffffffffffffffffffffffffffffffff167fe1fffcc4923d04b559f4d29a8bfc6cda04eb5b0d3c460751c2402c5c5cc9109c826040516106449190611f43565b60405180910390a25050565b5f8373ffffffffffffffffffffffffffffffffffffffff1661067284846118b3565b73ffffffffffffffffffffffffffffffffffffffff161490509392505050565b5f81815481106106a0575f80fd5b905f5260205f20015f915054906101000a900473ffffffffffffffffffffffffffffffffffffffff1681565b6004602052805f5260405f205f915090505481565b60035f9054906101000a900460ff1615610730576040517f08c379a000000000000000000000000000000000000000000000000000000000815260040161072790612361565b60405180910390fd5b8060045f3373ffffffffffffffffffffffffffffffffffffffff1673ffffffffffffffffffffffffffffffffffffffff1681526020019081526020015f205410156107b0576040517f08c379a00000000000000000000000000000000000000000000000000000000081526004016107a7906123c9565b60405180910390fd5b8060045f3373ffffffffffffffffffffffffffffffffffffffff1673ffffffffffffffffffffffffffffffffffffffff1681526020019081526020015f205f8282546107fc91906123e7565b925050819055508060085f82825461081491906123e7565b925050819055505f3373ffffffffffffffffffffffffffffffffffffffff168260405161084090612447565b5f6040518083038185875af1925050503d805f811461087a576040519150601f19603f3d011682016040523d82523d5f602084013e61087f565b606091505b50509050806108c3576040517f08c379a00000000000000000000000000000000000000000000000000000000081526004016108ba906124a5565b60405180910390fd5b3373ffffffffffffffffffffffffffffffffffffffff167f7fcf532c15f0a6db0bd6d0e038bea71d30d808c7d98cb3bf7268a95bf5081b65836040516109099190611f43565b60405180910390a25050565b60075481565b6001602052805f5260405f205f915054906101000a900460ff1681565b60035f9054906101000a900460ff1615610987576040517f08c379a000000000000000000000000000000000000000000000000000000000815260040161097e90612361565b60405180910390fd5b5f338260405160200161099b929190612528565b604051602081830303815290604052805190602001209050600754610a008585808060200260200160405190810160405280939291908181526020018383602002808284375f81840152601f19601f82011690508083019250505050505050836118dd565b14610a40576040517f08c379a0000000000000000000000000000000000000000000000000000000008152600401610a379061259d565b60405180910390fd5b60055f3373ffffffffffffffffffffffffffffffffffffffff1673ffffffffffffffffffffffffffffffffffffffff1681526020019081526020015f205f9054906101000a900460ff1615610aca576040517f08c379a0000000000000000000000000000000000000000000000000000000008152600401610ac190612605565b60405180910390fd5b600160055f3373ffffffffffffffffffffffffffffffffffffffff1673ffffffffffffffffffffffffffffffffffffffff1681526020019081526020015f205f6101000a81548160ff0219169083151502179055508160085f828254610b3091906123e7565b925050819055505f3373ffffffffffffffffffffffffffffffffffffffff1683604051610b5c90612447565b5f6040518083038185875af1925050503d805f8114610b96576040519150601f19603f3d011682016040523d82523d5f602084013e610b9b565b606091505b5050905080610bdf576040517f08c379a0000000000000000000000000000000000000000000000000000000008152600401610bd6906124a5565b60405180910390fd5b3373ffffffffffffffffffffffffffffffffffffffff167f47cee97cb7acd717b3c0aa1435d004cd5b3c8c57d70dbceb4e4458bbd60e39d484604051610c259190611f43565b60405180910390a25050505050565b600b5481565b3073ffffffffffffffffffffffffffffffffffffffff163373ffffffffffffffffffffffffffffffffffffffff1614610ca8576040517f08c379a0000000000000000000000000000000000000000000000000000000008152600401610c9f9061266d565b60405180910390fd5b5f60035f6101000a81548160ff021916908315150217905550565b60025481565b610e1081565b3073ffffffffffffffffffffffffffffffffffffffff163373ffffffffffffffffffffffffffffffffffffffff1614610d3d576040517f08c379a0000000000000000000000000000000000000000000000000000000008152600401610d349061266d565b60405180910390fd5b5f4790505f6008819055505f8273ffffffffffffffffffffffffffffffffffffffff1682604051610d6d90612447565b5f6040518083038185875af1925050503d805f8114610da7576040519150601f19603f3d011682016040523d82523d5f602084013e610dac565b606091505b5050905080610df0576040517f08c379a0000000000000000000000000000000000000000000000000000000008152600401610de7906124a5565b60405180910390fd5b505050565b60035f9054906101000a900460ff1681565b3073ffffffffffffffffffffffffffffffffffffffff163373ffffffffffffffffffffffffffffffffffffffff1614610e75576040517f08c379a0000000000000000000000000000000000000000000000000000000008152600401610e6c9061266d565b60405180910390fd5b80600781905550807f42cbc405e4dbf1b691e85b9a34b08ecfcf7a9ad9078bf4d645ccfa1fac11c10b60405160405180910390a250565b3073ffffffffffffffffffffffffffffffffffffffff163373ffffffffffffffffffffffffffffffffffffffff1614610f1a576040517f08c379a0000000000000000000000000000000000000000000000000000000008152600401610f119061266d565b60405180910390fd5b600160035f6101000a81548160ff021916908315150217905550565b6009602052815f5260405f20602052805f5260405f205f915091509054906101000a900460ff1681565b600a602052805f5260405f205f91509050805f015f9054906101000a900473ffffffffffffffffffffffffffffffffffffffff1690806001015490806002018054610faa906126b8565b80601f0160208091040260200160405190810160405280929190818152602001828054610fd6906126b8565b80156110215780601f10610ff857610100808354040283529160200191611021565b820191905f5260205f20905b81548152906001019060200180831161100457829003601f168201915b505050505090806003015f9054906101000a900460ff16908060040154908060050154908060060154905087565b6006602052805f5260405f205f915054906101000a900460ff1681565b60085481565b60015f3373ffffffffffffffffffffffffffffffffffffffff1673ffffffffffffffffffffffffffffffffffffffff1681526020019081526020015f205f9054906101000a900460ff166110fb576040517f08c379a00000000000000000000000000000000000000000000000000000000081526004016110f290612732565b60405180910390fd5b60035f9054906101000a900460ff161561114a576040517f08c379a000000000000000000000000000000000000000000000000000000000815260040161114190612361565b60405180910390fd5b5f600a5f8381526020019081526020015f209050806003015f9054906101000a900460ff16156111af576040517f08c379a00000000000000000000000000000000000000000000000000000000081526004016111a69061279a565b60405180910390fd5b60095f8381526020019081526020015f205f3373ffffffffffffffffffffffffffffffffffffffff1673ffffffffffffffffffffffffffffffffffffffff1681526020019081526020015f205f9054906101000a900460ff1615611248576040517f08c379a000000000000000000000000000000000000000000000000000000000815260040161123f90612828565b60405180910390fd5b600160095f8481526020019081526020015f205f3373ffffffffffffffffffffffffffffffffffffffff1673ffffffffffffffffffffffffffffffffffffffff1681526020019081526020015f205f6101000a81548160ff021916908315150217905550806004015f8154809291906112c090612846565b919050555060025481600401541480156112dd57505f8160060154145b156112f957610e10426112f091906122d4565b81600601819055505b3373ffffffffffffffffffffffffffffffffffffffff16827f1f7db319f45151674bbce08ad4e1093bca1941bc7ef2f91ccafd6519406f010160405160405180910390a35050565b60015f3373ffffffffffffffffffffffffffffffffffffffff1673ffffffffffffffffffffffffffffffffffffffff1681526020019081526020015f205f9054906101000a900460ff166113ca576040517f08c379a00000000000000000000000000000000000000000000000000000000081526004016113c190612732565b60405180910390fd5b60035f9054906101000a900460ff1615611419576040517f08c379a000000000000000000000000000000000000000000000000000000000815260040161141090612361565b60405180910390fd5b5f600b5f81548092919061142c90612846565b9190505590505f5f905060016002540361145157610e104261144e91906122d4565b90505b6040518060e001604052808773ffffffffffffffffffffffffffffffffffffffff16815260200186815260200185858080601f0160208091040260200160405190810160405280939291908181526020018383808284375f81840152601f19601f8201169050808301925050505050505081526020015f151581526020016001815260200142815260200182815250600a5f8481526020019081526020015f205f820151815f015f6101000a81548173ffffffffffffffffffffffffffffffffffffffff021916908373ffffffffffffffffffffffffffffffffffffffff1602179055506020820151816001015560408201518160020190816115549190612a3e565b506060820151816003015f6101000a81548160ff0219169083151502179055506080820151816004015560a0820151816005015560c08201518160060155905050600160095f8481526020019081526020015f205f3373ffffffffffffffffffffffffffffffffffffffff1673ffffffffffffffffffffffffffffffffffffffff1681526020019081526020015f205f6101000a81548160ff021916908315150217905550817fc0ba8fe4b176c1714197d43b9cc6bcf797a4a7461c5fe8d0ef6e184ae7601e5160405160405180910390a2505050505050565b6005602052805f5260405f205f915054906101000a900460ff1681565b6116553334610593565b565b5f600a5f8381526020019081526020015f209050600254816004015410156116b4576040517f08c379a00000000000000000000000000000000000000000000000000000000081526004016116ab90612b57565b60405180910390fd5b806003015f9054906101000a900460ff1615611705576040517f08c379a00000000000000000000000000000000000000000000000000000000081526004016116fc9061279a565b60405180910390fd5b5f81600601541161174b576040517f08c379a000000000000000000000000000000000000000000000000000000000815260040161174290612bbf565b60405180910390fd5b8060060154421015611792576040517f08c379a000000000000000000000000000000000000000000000000000000000815260040161178990612c27565b60405180910390fd5b6001816003015f6101000a81548160ff0219169083151502179055505f815f015f9054906101000a900473ffffffffffffffffffffffffffffffffffffffff1673ffffffffffffffffffffffffffffffffffffffff168260010154836002016040516117fe9190612cc5565b5f6040518083038185875af1925050503d805f8114611838576040519150601f19603f3d011682016040523d82523d5f602084013e61183d565b606091505b5050905080611881576040517f08c379a000000000000000000000000000000000000000000000000000000000815260040161187890612d25565b60405180910390fd5b827f33e13ecb54c3076d8e8bb8c2881800a4d972b792045ffae98fdf46df365fed7560405160405180910390a2505050565b5f5f5f5f6118c1868661192e565b9250925092506118d18282611983565b82935050505092915050565b5f5f8290505f5f90505b8451811015611923576119148286838151811061190757611906612d43565b5b6020026020010151611ae5565b915080806001019150506118e7565b508091505092915050565b5f5f5f604184510361196e575f5f5f602087015192506040870151915060608701515f1a905061196088828585611b0f565b95509550955050505061197c565b5f600285515f1b9250925092505b9250925092565b5f600381111561199657611995612d70565b5b8260038111156119a9576119a8612d70565b5b0315611ae157600160038111156119c3576119c2612d70565b5b8260038111156119d6576119d5612d70565b5b03611a0d576040517ff645eedf00000000000000000000000000000000000000000000000000000000815260040160405180910390fd5b60026003811115611a2157611a20612d70565b5b826003811115611a3457611a33612d70565b5b03611a7857805f1c6040517ffce698f7000000000000000000000000000000000000000000000000000000008152600401611a6f9190611f43565b60405180910390fd5b600380811115611a8b57611a8a612d70565b5b826003811115611a9e57611a9d612d70565b5b03611ae057806040517fd78bce0c000000000000000000000000000000000000000000000000000000008152600401611ad79190611f6b565b60405180910390fd5b5b5050565b5f818310611afc57611af78284611bf6565b611b07565b611b068383611bf6565b5b905092915050565b5f5f5f7f7fffffffffffffffffffffffffffffff5d576e7357a4501ddfe92f46681b20a0845f1c1115611b4b575f600385925092509250611bec565b5f6001888888886040515f8152602001604052604051611b6e9493929190612db8565b6020604051602081039080840390855afa158015611b8e573d5f5f3e3d5ffd5b5050506020604051035190505f73ffffffffffffffffffffffffffffffffffffffff168173ffffffffffffffffffffffffffffffffffffffff1603611bdf575f60015f5f1b93509350935050611bec565b805f5f5f1b935093509350505b9450945094915050565b5f825f528160205260405f20905092915050565b5f604051905090565b5f5ffd5b5f5ffd5b5f73ffffffffffffffffffffffffffffffffffffffff82169050919050565b5f611c4482611c1b565b9050919050565b611c5481611c3a565b8114611c5e575f5ffd5b50565b5f81359050611c6f81611c4b565b92915050565b5f819050919050565b611c8781611c75565b8114611c91575f5ffd5b50565b5f81359050611ca281611c7e565b92915050565b5f5ffd5b5f5ffd5b5f601f19601f8301169050919050565b7f4e487b71000000000000000000000000000000000000000000000000000000005f52604160045260245ffd5b611cf682611cb0565b810181811067ffffffffffffffff82111715611d1557611d14611cc0565b5b80604052505050565b5f611d27611c0a565b9050611d338282611ced565b919050565b5f67ffffffffffffffff821115611d5257611d51611cc0565b5b611d5b82611cb0565b9050602081019050919050565b828183375f83830152505050565b5f611d88611d8384611d38565b611d1e565b905082815260208101848484011115611da457611da3611cac565b5b611daf848285611d68565b509392505050565b5f82601f830112611dcb57611dca611ca8565b5b8135611ddb848260208601611d76565b91505092915050565b5f5f5f60608486031215611dfb57611dfa611c13565b5b5f611e0886828701611c61565b9350506020611e1986828701611c94565b925050604084013567ffffffffffffffff811115611e3a57611e39611c17565b5b611e4686828701611db7565b9150509250925092565b5f8115159050919050565b611e6481611e50565b82525050565b5f602082019050611e7d5f830184611e5b565b92915050565b5f819050919050565b611e9581611e83565b8114611e9f575f5ffd5b50565b5f81359050611eb081611e8c565b92915050565b5f60208284031215611ecb57611eca611c13565b5b5f611ed884828501611ea2565b91505092915050565b611eea81611c3a565b82525050565b5f602082019050611f035f830184611ee1565b92915050565b5f60208284031215611f1e57611f1d611c13565b5b5f611f2b84828501611c61565b91505092915050565b611f3d81611e83565b82525050565b5f602082019050611f565f830184611f34565b92915050565b611f6581611c75565b82525050565b5f602082019050611f7e5f830184611f5c565b92915050565b5f5ffd5b5f5ffd5b5f5f83601f840112611fa157611fa0611ca8565b5b8235905067ffffffffffffffff811115611fbe57611fbd611f84565b5b602083019150836020820283011115611fda57611fd9611f88565b5b9250929050565b5f5f5f60408486031215611ff857611ff7611c13565b5b5f84013567ffffffffffffffff81111561201557612014611c17565b5b61202186828701611f8c565b9350935050602061203486828701611ea2565b9150509250925092565b5f61204882611c1b565b9050919050565b6120588161203e565b8114612062575f5ffd5b50565b5f813590506120738161204f565b92915050565b5f6020828403121561208e5761208d611c13565b5b5f61209b84828501612065565b91505092915050565b5f602082840312156120b9576120b8611c13565b5b5f6120c684828501611c94565b91505092915050565b5f5f604083850312156120e5576120e4611c13565b5b5f6120f285828601611ea2565b925050602061210385828601611c61565b9150509250929050565b5f81519050919050565b5f82825260208201905092915050565b8281835e5f83830152505050565b5f61213f8261210d565b6121498185612117565b9350612159818560208601612127565b61216281611cb0565b840191505092915050565b5f60e0820190506121805f83018a611ee1565b61218d6020830189611f34565b818103604083015261219f8188612135565b90506121ae6060830187611e5b565b6121bb6080830186611f34565b6121c860a0830185611f34565b6121d560c0830184611f34565b98975050505050505050565b5f5f83601f8401126121f6576121f5611ca8565b5b8235905067ffffffffffffffff81111561221357612212611f84565b5b60208301915083600182028301111561222f5761222e611f88565b5b9250929050565b5f5f5f5f6060858703121561224e5761224d611c13565b5b5f61225b87828801611c61565b945050602061226c87828801611ea2565b935050604085013567ffffffffffffffff81111561228d5761228c611c17565b5b612299878288016121e1565b925092505092959194509250565b7f4e487b71000000000000000000000000000000000000000000000000000000005f52601160045260245ffd5b5f6122de82611e83565b91506122e983611e83565b9250828201905080821115612301576123006122a7565b5b92915050565b5f82825260208201905092915050565b7f436f6e74726163742069732070617573656400000000000000000000000000005f82015250565b5f61234b601283612307565b915061235682612317565b602082019050919050565b5f6020820190508181035f8301526123788161233f565b9050919050565b7f496e73756666696369656e742062616c616e63650000000000000000000000005f82015250565b5f6123b3601483612307565b91506123be8261237f565b602082019050919050565b5f6020820190508181035f8301526123e0816123a7565b9050919050565b5f6123f182611e83565b91506123fc83611e83565b9250828203905081811115612414576124136122a7565b5b92915050565b5f81905092915050565b50565b5f6124325f8361241a565b915061243d82612424565b5f82019050919050565b5f61245182612427565b9150819050919050565b7f5472616e73666572206661696c656400000000000000000000000000000000005f82015250565b5f61248f600f83612307565b915061249a8261245b565b602082019050919050565b5f6020820190508181035f8301526124bc81612483565b9050919050565b5f8160601b9050919050565b5f6124d9826124c3565b9050919050565b5f6124ea826124cf565b9050919050565b6125026124fd82611c3a565b6124e0565b82525050565b5f819050919050565b61252261251d82611e83565b612508565b82525050565b5f61253382856124f1565b6014820191506125438284612511565b6020820191508190509392505050565b7f496e76616c6964204d65726b6c652070726f6f660000000000000000000000005f82015250565b5f612587601483612307565b915061259282612553565b602082019050919050565b5f6020820190508181035f8301526125b48161257b565b9050919050565b7f416c726561647920636c61696d656400000000000000000000000000000000005f82015250565b5f6125ef600f83612307565b91506125fa826125bb565b602082019050919050565b5f6020820190508181035f83015261261c816125e3565b9050919050565b7f4f6e6c79207661756c742063616e2063616c6c000000000000000000000000005f82015250565b5f612657601383612307565b915061266282612623565b602082019050919050565b5f6020820190508181035f8301526126848161264b565b9050919050565b7f4e487b71000000000000000000000000000000000000000000000000000000005f52602260045260245ffd5b5f60028204905060018216806126cf57607f821691505b6020821081036126e2576126e161268b565b5b50919050565b7f496e76616c6964204f776e6572000000000000000000000000000000000000005f82015250565b5f61271c600d83612307565b9150612727826126e8565b602082019050919050565b5f6020820190508181035f83015261274981612710565b9050919050565b7f5472616e73616374696f6e20657865637574656420616c7265616479000000005f82015250565b5f612784601c83612307565b915061278f82612750565b602082019050919050565b5f6020820190508181035f8301526127b181612778565b9050919050565b7f5472616e73616374696f6e20616c726561647920636f6e6669726d65642062795f8201527f2074686973206f776e6572000000000000000000000000000000000000000000602082015250565b5f612812602b83612307565b915061281d826127b8565b604082019050919050565b5f6020820190508181035f83015261283f81612806565b9050919050565b5f61285082611e83565b91507fffffffffffffffffffffffffffffffffffffffffffffffffffffffffffffffff8203612882576128816122a7565b5b600182019050919050565b5f819050815f5260205f209050919050565b5f6020601f8301049050919050565b5f82821b905092915050565b5f600883026128e97fffffffffffffffffffffffffffffffffffffffffffffffffffffffffffffffff826128ae565b6128f386836128ae565b95508019841693508086168417925050509392505050565b5f819050919050565b5f61292e61292961292484611e83565b61290b565b611e83565b9050919050565b5f819050919050565b61294783612914565b61295b61295382612935565b8484546128ba565b825550505050565b5f5f905090565b612972612963565b61297d81848461293e565b505050565b5f5b828110156129a3576129985f82840161296a565b600181019050612984565b505050565b601f8211156129f657828211156129f5576129c28161288d565b6129cb8361289f565b6129d48561289f565b60208610156129e1575f90505b8083016129f082840382612982565b505050505b5b505050565b5f82821c905092915050565b5f612a165f19846008026129fb565b1980831691505092915050565b5f612a2e8383612a07565b9150826002028217905092915050565b612a478261210d565b67ffffffffffffffff811115612a6057612a5f611cc0565b5b612a6a82546126b8565b612a758282856129a8565b5f60209050601f831160018114612aa6575f8415612a94578287015190505b612a9e8582612a23565b865550612b05565b601f198416612ab48661288d565b5f5b82811015612adb57848901518255600182019150602085019450602081019050612ab6565b86831015612af85784890151612af4601f891682612a07565b8355505b6001600288020188555050505b505050505050565b7f4e6f7420656e6f75676820636f6e6669726d6174696f6e7300000000000000005f82015250565b5f612b41601883612307565b9150612b4c82612b0d565b602082019050919050565b5f6020820190508181035f830152612b6e81612b35565b9050919050565b7f54696d656c6f636b206e6f7420737461727465640000000000000000000000005f82015250565b5f612ba9601483612307565b9150612bb482612b75565b602082019050919050565b5f6020820190508181035f830152612bd681612b9d565b9050919050565b7f54696d656c6f636b206e6f7420657870697265640000000000000000000000005f82015250565b5f612c11601483612307565b9150612c1c82612bdd565b602082019050919050565b5f6020820190508181035f830152612c3e81612c05565b9050919050565b5f8154612c51816126b8565b612c5b818661241a565b9450600182165f8114612c755760018114612c8a57612cbc565b60ff1983168652811515820286019350612cbc565b612c938561288d565b5f5b83811015612cb457815481890152600182019150602081019050612c95565b838801955050505b50505092915050565b5f612cd08284612c45565b915081905092915050565b7f5472616e73616374696f6e206661696c656400000000000000000000000000005f82015250565b5f612d0f601283612307565b9150612d1a82612cdb565b602082019050919050565b5f6020820190508181035f830152612d3c81612d03565b9050919050565b7f4e487b71000000000000000000000000000000000000000000000000000000005f52603260045260245ffd5b7f4e487b71000000000000000000000000000000000000000000000000000000005f52602160045260245ffd5b5f60ff82169050919050565b612db281612d9d565b82525050565b5f608082019050612dcb5f830187611f5c565b612dd86020830186612da9565b612de56040830185611f5c565b612df26060830184611f5c565b9594505050505056fea264697066735822122028ce8826cd1c5112b0f4f63a401a45abc3023df9a555f9097b9f32213ecfce7264736f6c63430008210033","linkReferences":{}},"methodIdentifiers":{"TIMELOCK_DURATION()":"4623c81e","balances(address)":"27e235e3","claim(bytes32[],uint256)":"3b439351","claimed(address)":"c884ef83","confirmTransaction(uint256)":"c01a8c84","confirmed(uint256,address)":"8790c1de","deposit()":"d0e30db0","emergencyWithdrawAll(address)":"54ab6269","executeTransaction(uint256)":"ee22610b","isOwner(address)":"2f54bf6e","merkleRoot()":"2eb4a7ab","owners(uint256)":"025e7c27","pause()":"8456cb59","paused()":"5c975abb","setMerkleRoot(bytes32)":"7cb64759","submitTransaction(address,uint256,bytes)":"c6427474","threshold()":"42cde4e8","totalVaultValue()":"afbc74b9","transactions(uint256)":"9ace38c2","txCount()":"3c540687","unpause()":"3f4ba83a","usedHashes(bytes32)":"aef18bf7","verifySignature(address,bytes32,bytes)":"01751998","withdraw(uint256)":"2e1a7d4d"},"id":25}